:040000009AEF3FF044
:107F2E00C2909D9C12000001B6EF3FF09268000EC9
:107F3E00936E870E946E000E956EF80E966E000E72
:107F4E008C6E000E8D6E000E8A6E000E016EFF0E90
:107F5E00026E000ED1EC3FF097EC3FF012009DEC5C
:107F6E003FF08A8E020E076E450E066EAA0EE82EA2
:107F7E00FED7062EFCD7072EFAD78A9E020E076E64
:107F8E00450E066EAA0EE82EFED7062EFCD7072E3D
:107F9E00FAD7E7D7056E000EC26E000EC06ED890EF
:107FAE0001303C0BC26E01C003F0033AF00E031613
:107FBE00300E031602500F0B0310C16E05C003F0F6
:107FCE00D8900336D8900336380E031605C004F049
:107FDE00043A0F0E0416070E04160550800B0410FB
:107FEE000310C06E01AE03D09E9C9D8CF28CC2809D
:027FFE0012006F
:020000040020DA
:08000000FFFFFFFFFFFFFFFF00
:020000040030CA
:0E000000000E1F0EFF8385FF0FC00FE00F40A4
:00000001FF
