:0400000020EF00F0FD
:100008005B82D9CF31F0DACF32F0F2BAF2A403D062
:10001800D4EC07F00BD09DBA9EAA03D0F8EC07F0F9
:1000280005D09DB89EA802D0E6EC07F032C0DAFFF2
:0C00380031C0D9FF5B92110025EF08F0E9
:100600000001000800400000020010008001000A04
:10061000006400E803102701001000000100103002
:100620003132333435363738394142434445460058
:100630003031323334353637383961626364656658
:10064000007B224750494F31223A202564207D000B
:100650007B22414E30223A202564207D0000516EDD
:100660003F0E4E6E24D3250E551804E0555059EC1C
:1006700008F01DD3536A546A566A576A08D05686E2
:1006800005D0568003D0578601D05684512A51C0D8
:10069000F6FF060EF76E0800F550200AF2E0030A96
:1006A000F2E00E0AECE01D0AF0E056B6569451C096
:1006B000F6FF060EF76E0800F55009EC08F02DE382
:1006C000536A546A53C033F054C034F0366A0A0E89
:1006D000356E9DEC07F033C053F034C054F0D00EAB
:1006E000416E426851C0F6FF060EF76E0800F550E5
:1006F000436E446A4150432642504422435053269D
:1007000044505422512A51C0F6FF060EF76E0800DD
:10071000F55009EC08F013E3D5D751C0F6FF060EEB
:10072000F76E0800F5502A0A0AE14E50D96EDA6ACF
:10073000DECF53F0DDCF54F0020E4E26512A51C0C9
:10074000F6FF060EF76E0800F5502E0A2DE1578CC5
:10075000512A51C0F6FF060EF76E0800F5502A0A1E
:1007600009E14E50D96EDA6ADF50526E020E4E2603
:10077000512A7AD0526A0ED051C0F6FF060EF76E9B
:100780000800F5CF41F052500A0DF3504124D00F2C
:10079000526E512A51C0F6FF060EF76E0800F55052
:1007A00009EC08F061E3E8D7526A5ED0568C78D045
:1007B000568A568E75D052500FE052C041F0426AB0
:1007C00041BE42064C50415C4D50425805E25250E9
:1007D0004C6E4D6A4CBE4D0653504C5C54504D58B7
:1007E00005E24C50535E4D50545A02D0536A546A3D
:1007F00056B613D003D0200E59EC08F05306D8A0FB
:1008000054065328F8E1542808E0F5D74A50D96E29
:10081000DA6ADF5059EC08F04A2A4C06D8A04D0697
:100820004C28F4E14D28F2E156A641D203D0200E27
:1008300059EC08F05306D8A054065328F8E1542880
:1008400001E135D2F4D74E50D96EDA6ADF50556ED9
:10085000020E4E26550E4A6E000E4D6E010E4C6E67
:10086000AAD7C00E56121CD0512A5104416E41C065
:10087000F6FF060EF76E0800F5CF55F05550D8B4C8
:100880001200580A95E03B0ADEE0070A09E00D0A6B
:1008900007E0060A8BE01A0AE4E00D0A8AE0DAD7DC
:1008A00056C041F0C00E411612E14E50D96EDA6AC0
:1008B000DECF4FF0DDCF50F0020E4E2650AE10D0FE
:1008C000030E56124F6C501ED8B0502A09D04E500D
:1008D000D96EDA6ADECF4FF0DDCF50F0020E4E2631
:1008E00052504AE14F50501047E1522A45D0010E74
:1008F000556E050E551849E05550020DF3500D0F79
:10090000416E41C0F6FF060EF76E0900F5504F5CD0
:100910000900F550505839E3552AEBD7010E556EB2
:10092000040E551832E05550020DF350170F416E6A
:1009300041C0F6FF060EF76E0900F5504F5C090046
:10094000F550505822E3552AEBD7010E556E060E8E
:1009500055181BE05550020DF350010F416E41C078
:10096000F6FF060EF76E0900F5504F5C0900F550D2
:1009700050580BE3552AEBD75650C00BB8E0400A4D
:10098000E4E0C00ACBE0400AB2E05550800A416E74
:100990005250800A415C03E252C055F009D05250D7
:1009A000800A416E5550800A415C02E255C052F007
:1009B0005350541008E056C041F0030E411603E0B6
:1009C0005306D8A0540657AC13D0800E52BE7F0EEB
:1009D000416E5350525C5450800A415807E25250C5
:1009E000535E000E52BEFF0E545A02D0536A546A30
:1009F000C40E416E080E426E56C043F057C044F01C
:100A00004150431642504416400E43180AE1080E66
:100A1000441807E15350541024E05306D8A054065C
:100A200020D0C00E416E080E426E56C043F057C033
:100A300044F04150431642504416800E431811E1D1
:100A4000080E44180EE154BE0AD0545003E1030EC0
:100A5000535C05E3FE0E5326FF0E542202D0536A68
:100A6000546A800E55BE7F0E416E5350555C5450F3
:100A7000800A415807E25550535E000E55BEFF0EE6
:100A8000545A02D0536A546A56A43CD056C041F01E
:100A9000030E411604E02D0E59EC08F028D056A0A4
:100AA00004D0200E59EC08F022D0C00E416E080E82
:100AB000426E56C043F057C044F041504316425076
:100AC0004416800E431813E1080E441810E1300E4E
:100AD00059EC08F056BA04D0000E476E780E03D0D9
:100AE000000E476E580E466E465059EC08F05350B3
:100AF000541001E1C9D0300E59EC08F05306D8A0CB
:100B00005406F5D7535054100BE056B609D0200EBA
:100B100059EC08F05306D8A0540653505410F7E18E
:100B200056C041F0030E411604E02D0E59EC08F0BA
:100B300005D056A003D0200E59EC08F0C00E416E2F
:100B4000080E426E56C043F057C044F04150431661
:100B500042504416400E431807E1080E441804E1C1
:100B6000300E59EC08F090D0C00E416E080E426E67
:100B700056C043F057C044F041504316425044160B
:100B8000800E431813E1080E44187EE1300E59EC34
:100B900008F056BA04D0000E496E780E03D0000E4D
:100BA000496E580E486E485059EC08F06DD05250BE
:100BB000020DF3500D0F416E41C0F6FF060EF76EA9
:100BC0000900F5CF35F00A00F5CF36F04FC033F00D
:100BD00050C034F0FCEC06F033C03AF034C03BF0C7
:100BE0003D6A0A0E3C6E21EC07F03A503ED04FC0F1
:100BF00033F050C034F05250020DF350170F416ED5
:100C000041C0F6FF060EF76E0900F5CF35F00A0079
:100C1000F5CF36F0FCEC06F033500F0B456E300E7E
:100C200056BA1F0E4B6E4B504524416E41C0F6FF25
:100C3000060EF76E0800F5CF55F023D04FC033F005
:100C400050C034F05250020DF350010F416E41C0BC
:100C5000F6FF060EF76E0900F5CF35F00A00F5CF66
:100C600036F0FCEC06F03350070B300F556E09D010
:100C70005650C00B9CE0400AE1E0C00AB8E0400AD0
:100C800096E0555059EC08F052065228F1E156B65C
:100C900054BE0DD0545002E1530409E3200E59EC28
:100CA00008F05306D8A0540653505410F7E1512AC7
:100CB0005104416E41C0F6FF060EF76E0800F5CFF5
:100CC00055F0555001E0CFD4120081B016D01C5021
:100CD00014E18CB002D08C8001D08C90010E8CA0DD
:100CE000000E3F6E406A410E2FEC03F0346A500E46
:100CF000336EB0EC07F0010E1C6E81A008D01C040E
:100D000006E11C6A346A500E336EB0EC07F01750DF
:100D100007E0C2EC07F00001626F6251A3EC06F03D
:100D20001504D8A41200000E5AEC07F033C060F08E
:100D300034C061F060C03FF061C040F0500E2FEC55
:100D400003F0156A1200356E7B0E351808E1165057
:100D500006E1010E166E1D0E136E146A18D01604ED
:100D600016E113C0D9FF14C0DAFF35C0DFFF134A04
:100D7000142A1D0E135C336E000E1458346E34BEEC
:100D800006D0345003E1140E335C01E3166A1604F6
:100D9000D8A412007D0E3518D8A41200D2EC06F0AB
:100DA000166A1200220E1D18D8A41200470E1E1833
:100DB000D8A41200500E1F18D8A41200490E2018F3
:100DC000D8A412004F0E2118D8A41200310E2218F8
:100DD000D8A41200220E2318D8A412003A0E241808
:100DE00005E012008C9012008C8012002550300A11
:100DF000F9E0010AF9E01200386A396A3550361014
:100E00001BE0010E376E04D0D89035363636372ABF
:100E100036AEFAD7D890383639363550335C36503E
:100E2000345805E33550335E3650345A3880D89004
:100E300036323532372EEED738C033F039C034F081
:100E400012003C503D1017E0010E3E6E04D0D890C9
:100E50003C363D363E2A3DAEFAD73C503A5C3D50DA
:100E60003B5804E33C503A5E3D503B5AD8903D32EB
:100E70003C323E2EF2D73AC03AF03BC03BF0120073
:100E8000010E896E92682F0E0F01386F8A6A93687F
:100E90003E0E396F010E616E8B6A94683C0E3A6F9C
:100EA0008C6AFC0E956E3B6F8D6A070E966E3C6FDA
:100EB000F19E070C376E37C035F035463546C250C7
:100EC0003518830B3518C26EC280C282C2B2FED7FB
:100ED000C450366E356AC3503524336E000E36204A
:100EE000346E1200336E5A50FEE09DB803D033C00A
:100EF000ADFF0DD09D981A50090FD96EDA6A33C034
:100F0000DFFF1A2A070E1A6401D01A6A5A069D8852
:100F100012009D9A9D98480EB86E900EAB6E260EEC
:100F2000AC6ECF0EAF6EB06A1A6A1B6A080E5A6EAC
:100F3000186A196A176A9D8A120033503502F3CF76
:100F400037F0F4CF38F033503602F35038263450AF
:100F50003502F350382637C033F038C034F0120071
:100F6000366A376A09D0030E356E980EE82EFED722
:100F7000352EFCD7364A372A3350365C3450375832
:100F8000F2E312001750FEE09D9A1950010FD96E3E
:100F9000DA6ADF50336E192A070E196401D0196A14
:100FA00017069D8A33501200F29459C0D7FF58C0DB
:100FB000D6FF114A122A125004E1020E115CD8A089
:100FC00012005DEC08F0116A126A1200080E5A60F5
:100FD0000DD01B50090FD96EDA6ADF50AD6E1B2A97
:100FE000070E1B6401D01B6A5A2A12009D9812003A
:100FF000ABA202D0AB98AB881850010FD96EDA6A59
:10100000AECFDFFF182A070E186401D0186A172A1E
:101010001200356E346A3A0E356005D02F0E3564F5
:1010200002D0010E346E34C033F033301200960E0D
:10103000D56EC20ED76EF70ED66EC20E596EF70E73
:10104000586EF294F28A60EF08F000EE01F0300E74
:10105000EE6AE806FDE15B905B92000EF86E00011F
:1010600047EF08F04EEC08F040EC07F054EC08F0C5
:1010700089EC07F017EC08F03EEF08F0010EC26EA5
:10108000800EC16EAA0EC06EC36AC46A120032EC32
:1010900008F0F28EF28C65EC06F0FDD7300ED36EC0
:1010A000040ED26E9B6A1200D08EF1849F8A9F88B4
:1010B0001200346E345072EF07F0010E156E010C01
:0410C000D58E1200B7
:020000040020DA
:08000000FFFFFFFFFFFFFFFF00
:020000040030CA
:0E000000FF031F3CFFBD81FF0FC00FE00F404C
:00000001FF
