:0400000055EF3FF089
:107E8E000100FF0E1B241B6EFF0E1C201C6E1CAE71
:107E9E001200000E1C6E090E1B6E12008E0EF66E78
:107EAE007E0EF76E000EF86E0900F5CF1BF009007E
:107EBE00F5CF1CF000EE01F0170EEE6AE806FDE1BC
:107ECE00000183EF3FF0010E1B241B6E000E1C20E1
:107EDE001C6E1CBE0ED01C5004E10A0E1B5CD8A0FA
:107EEE0008D0110E0B6E410E016E000E1C6E000EB0
:107EFE001B6E82B41200FDD792680F0E936E070EA2
:107F0E00946E000E956EF80E966E000E836E000E39
:107F1E00846E000E816E410E1A6EEE0EE82EFED7A6
:107F2E001A2EFCD712D082A46AEC3FF084A648EC3D
:107F3E003FF001C018F00B50AEEC3FF0410E1A6E40
:107F4E00EE0EE82EFED71A2EFCD700D0ECD7196E07
:107F5E0019C015F0166A18C017F015A002D08C8043
:107F6E0001D08C9015A202D08C8201D08C9215A4D7
:107F7E0002D08C8401D08C9415A602D08C8601D0B0
:107F8E008C9615A802D08C8801D08C9815AA02D098
:107F9E008C8A01D08C9A15AC02D08C8C01D08C9C22
:107FAE0015AE02D08C8E01D08C9E17A002D08D8083
:107FBE0001D08D9017A202D08D8201D08D9217A480
:107FCE0002D08D8401D08D9417A602D08A8801D05C
:107FDE008A9817A802D08A8A01D08A9A17AA02D044
:107FEE008A8C01D08A9C17AC02D08A8E01D08A9ED0
:027FFE0012006F
:020000040020DA
:08000000FFFFFFFFFFFFFFFF00
:020000040030CA
:0E000000000C1F1EFF0385FF0FC00FE00F4016
:00000001FF
