:0400000068EF00F0B5
:060008004A8244EF09F0FA
:100018004A80D8CF60F0E8CF61F0E0CF62F0FACF45
:1000280063F0FBCF64F0E9CF65F0EACF66F0E1CF8B
:1000380067F0E2CF68F0D9CF69F0DACF6AF0F3CF92
:100048006BF0F4CF6CF0F6CF6DF0F7CF6EF0F8CF21
:100058006FF0F5CF70F04AC071F04BC072F04CC031
:1000680073F04DC074F09DB89EA802D03DEC0BF023
:1000780074C04DF073C04CF072C04BF071C04AF0C0
:1000880070C0F5FF6FC0F8FF6EC0F7FF6DC0F6FFD8
:100098006CC0F4FF6BC0F3FF6AC0DAFF69C0D9FF18
:1000A80068C0E2FF67C0E1FF66C0EAFF65C0E9FF1C
:1000B80064C0FBFF63C0FAFF62C0E0FF61C0E8FFF5
:0C00C80060C0D8FF4A9010008BEF0BF0D6
:101000000001000A006400E8031027233078313A19
:0D101000333433004144433A20256400008E
:10101E00830E0001846F000E856F89D0250E8A190C
:10102E00D8B404D08A51A8EC0BF081D0000E000188
:10103E00866F81C0F6FF82C0F7FF814B822BF86A64
:10104E000800F5CF8AF08A51000AD8B41200640A5B
:10105E00D8B403D00D0AD8A46AD084C0D9FF85C0F5
:10106E00DAFFDECF88F0DDCF89F0020E8427000E86
:10107E00852389AF06D0030E8613886D891FD8B0DD
:10108E00892B010E8A6F050E8A19D8B415D08A5194
:10109E00020D010EF324F66E100EF420F76EF86AB0
:1010AE00000EF8220900F550885D0900F5508959A7
:1010BE00D8A002D08A2BE7D786C083F0030E831701
:1010CE00D8B403D02D0EA8EC0BF08AC087F02AD02E
:1010DE0000018751020D010EF324F66E100EF4205E
:1010EE00F76EF86A000EF8220900F5CF77F00A00C5
:1010FE00F5CF78F088C075F089C076F0C6EC09F0AF
:10110E0075C07CF076C07DF0000E00017F6F0A0E78
:10111E007E6F19EC0AF000017C51300F8A6F8A51F4
:10112E00A8EC0BF0000187078729D8A4D1D781C07E
:10113E00F6FF82C0F7FF0001814B822BF86A080090
:10114E00F5CF8AF08A51D8B4120068D70F0E126EFE
:10115E00000E136E84D0250E1818D8B404D0185073
:10116E00C0EC0BF07CD0000E146E0DC0F6FF0EC05E
:10117E00F7FF0D4A0E2AF86A0800F5CF18F018503E
:10118E00000AD8B41200640AD8B403D00D0AD8A449
:10119E0066D012C0D9FF13C0DAFFDECF16F0DDCF56
:1011AE0017F0020E1226000E132217AE06D0030EF3
:1011BE001412166C171ED8B0172A010E186E050ED3
:1011CE001818D8B415D01850020D010EF324F66E6F
:1011DE00100EF420F76EF86A000EF8220900F55092
:1011EE00165C0900F5501758D8A002D0182AE7D778
:1011FE0014C011F0030E1116D8B403D02D0EC0EC8E
:10120E000BF018C015F027D01550020D010EF32467
:10121E00F66E100EF420F76EF86A000EF822090032
:10122E00F5CF03F00A00F5CF04F016C001F017C099
:10123E0002F0F0EC09F001C008F002C009F0000E57
:10124E000B6E0A0E0A6E5CEC0AF00850300F186E28
:10125E001850C0EC0BF015061528D8A4D5D70DC024
:10126E00F6FF0EC0F7FF0D4A0E2AF86A0800F5CFFA
:10127E0018F01850D8B412006ED7FACF1CF0FBCF6E
:10128E001DF0E9CF1EF0EACF1FF0E1CF20F0E2CF44
:10129E0021F0D9CF22F0DACF23F0F3CF24F0F4CF20
:1012AE0025F0F6CF26F0F7CF27F0F8CF28F0F5CFC0
:1012BE0029F04AC02AF04BC02BF04CC02CF04DC088
:1012CE002DF0F2BAF2A403D06AEC0BF005D09DBA61
:1012DE009EAA02D054EC0BF02DC04DF02CC04CF059
:1012EE002BC04BF02AC04AF029C0F5FF28C0F8FFEA
:1012FE0027C0F7FF26C0F6FF25C0F4FF24C0F3FF7A
:10130E0023C0DAFF22C0D9FF21C0E2FF20C0E1FFD7
:10131E001FC0EAFF1EC0E9FF1DC0FBFF1CC0FAFF85
:10132E004A9211008CA202D0010E01D0000EFF0ACB
:10133E00196E19468C501918FD0B19188C6E000E6B
:10134E0025EC0BF001C01AF002C01BF0140E0D6E4E
:10135E00100E0E6E1AC00FF01BC010F0ADEC08F0A0
:10136E0047504810D8B4120001D812000500FA6E8A
:10137E004750FD6E4850FE6EFF6AFA501200000E86
:10138E0000017B6F000E7A6F77517811D8B41CD0A4
:10139E00010E796F04D0D89077377837792B78AFE4
:1013AE00FAD7D8907A377B377751755D7851765961
:1013BE00D8A005D07751755F7851765B7A81D89039
:1013CE0078337733792FEDD77AC075F07BC076F00E
:1013DE001200000E066E000E056E03500410D8B4F7
:1013EE001CD0010E076E04D0D89003360436072A9F
:1013FE0004AEFAD7D890053606360350015C045079
:10140E000258D8A005D00350015E0450025A058040
:10141E00D89004320332072EEDD705C001F006C076
:10142E0002F0120000017E517F11D8B418D0010EC7
:10143E00806F04D0D8907E377F37802B7FAFFAD75E
:10144E007E517C5D7F517D59D8A004D07E517C5F4A
:10145E007F517D5BD8907F337E33802FF1D77CC058
:10146E007CF07DC07DF01200000E8D6E000E8C6E35
:10147E00000E896E000E8A6E000E8B6E070E966E33
:10148E0092689368BF0E946EFC0E956E3C0E0F0123
:10149E003A6F3E0E396FFC0E3B6F070E3C6F2F0EF0
:1014AE00386FFB0E616EF19E12000A500B10D8B40D
:1014BE0018D0010E0C6E04D0D8900A360B360C2ABA
:1014CE000BAEFAD70A50085C0B500958D8A004D0BE
:1014DE000A50085E0B50095AD8900B320A320C2E65
:1014EE00F1D708C008F009C009F012000001756FAD
:1014FE004950D8B4FDD79DB803D075C0ADFF12D0FA
:10150E009D984450010D360EF324D96E000EF42032
:10151E00DA6E75C0DFFF442A070E446402D0000E57
:10152E00446E49069D88120081B012000B0E000118
:10153E00816F100E826F0FEC08F08CA002D0010E9E
:10154E0001D0000EFF0A00018B6F8C508B19FE0B21
:10155E008B198C6E010E766FF40E756F0CEC0BF012
:10156E001200150ED56E670ED76E690ED66ED6505A
:10157E00D7CF77F00001786B77C078F0776B771163
:10158E00456E7851466EF294F28A8E0E756F170E76
:10159E00766FB6EC0BF0C5EC0BF01200016E4950F5
:1015AE00D8B4FDD79DB803D001C0ADFF12D09D9821
:1015BE004450010D360EF324D96E000EF420DA6E6F
:1015CE0001C0DFFF442A070E446402D0000E446EB1
:1015DE0049069D8812009D9A9D98080EB86E900E31
:1015EE00AB6E240EAC6E030EAF6E010EB06E000E1F
:1015FE00446E000E436E080E496E000E426E000ED3
:10160E00416E000E406E9D8A1200000E0001796F31
:10161E00010E786F0CD0040E0001776F3D0EE82E90
:10162E00FED7772FFCD700D00001784B792B755160
:10163E00785D76517959D8B01200EDD7056E05C098
:10164E0003F003460346C2500318830B0318C26E01
:10165E00C280C282C2B2FED7C450046E036AC350A7
:10166E000324016E000E0420026E1200080E496063
:10167E0012D04350010D360EF324D96E000EF42015
:10168E00DA6EDF50AD6E432A070E436402D0000EB1
:10169E00436E492A12009D981200ABA202D0AB985D
:1016AE00AB884250010D2E0EF324D96E000EF4209D
:1016BE00DA6EAECFDFFF422A070E426402D0000E72
:1016CE00426E402A1200F2944650D76E45C0D6FFA5
:1016DE003E4A3F2A3F5004E1030E3E5CD8A0120062
:1016EE0099EC09F0000E3F6E000E3E6E1200BBEC40
:1016FE000BF03BEC0AF0AFEC0BF0B8EC0AF096EC0A
:10170E000BF0F2EC0AF0120000EE2EF0170EEE6A5D
:10171E00E806FDE14A904A920001A1EF0BF0010E9E
:10172E00C26E000EC16EAE0EC06E000EC36E000E07
:10173E00C46E12007EEC0BF0F28EF28C9BEC0AF073
:10174E00FDD70001766F000176517DEC0AF0120094
:10175E00700ED36E040ED26E000E9B6E120075C00C
:10176E0047F076C048F01200D08EF1849F8A9F9881
:10177E001200026E0250D5EC0AF01200D58E120045
:02178E00120047
:020000040020DA
:08000000FFFFFFFFFFFFFFFF00
:020000040030CA
:0E000000FF23063CFFBD81FF0FC00FE00F4045
:00000001FF
