:0400000006EF3FF0D8
:107DF2000100C2909D9C12000A6EACAC03D0AC9004
:107E020009B2AC800AC0ADFF1200F20EF66E7D0E12
:107E1200F76E000EF86E0900F5CF12F00900F5CFEB
:107E220013F001EE00F0C80EEE6AE806FDE100EE86
:107E320001F0090EEE6AE806FDE1000180EF3FF075
:107E42000E6E000EC26E000EC06ED8900A303C0B51
:107E5200C26E0AC00CF00C3AF00E0C16300E0C1664
:107E62000B500F0B0C10C16E0EC00CF0D8900C36DC
:107E7200D8900C36380E0C160EC00DF00D3A0F0EBF
:107E82000D16070E0D160E50800B0D100C10C06E45
:107E92000AAE03D09E9C9D8CF28CC28012000C6EA6
:107EA200000EAC6E000EAB6E0CB0AC880CA202D011
:107EB200AC8CAB8C0CB4AC8E0CA602D0AB8801D0CF
:107EC200AB8A0CB8AC849E980CBAAB860CAC02D0D0
:107ED2009D8A01D09D9A9E9A0CAE02D09D8801D0B7
:107EE2009D980AC0AFFF0B50B06EAC8AAB8E949CCB
:107EF200948EACA81200ACBE1200948C1200BDECA1
:107F02003FF0410EFDEC3EF0030E116E8A0E106E34
:107F1200560EE82EFED7102EFCD7112EFAD7030EDE
:107F2200116E8A0E106E560EE82EFED7102EFCD75A
:107F3200112EFAD7030E116E8A0E106E560EE82E0F
:107F4200FED7102EFCD7112EFAD7030E116E8A0E11
:107F5200106E560EE82EFED7102EFCD7112EFAD731
:107F6200030E116E8A0E106E560EE82EFED7102EDC
:107F7200FCD7112EFAD7C5D792680F0E936E870ED3
:107F8200946E000E956EF80E966E000E8C6E000EBC
:107F92008D6E000E8A6E000E0A6EFF0E0B6E000EC4
:107FA20021EC3FF0FAEC3EF0A30E0F6E550EE82ED8
:107FB200FED70F2EFCD700F0A30E0F6E550EE82E43
:107FC200FED70F2EFCD700F0000E0B6E810E0A6E4C
:107FD2003C0E50EC3FF0B896B890B892A30E0F6EDC
:107FE200550EE82EFED70F2EFCD700F0A30E0F6E13
:0E7FF200550EE82EFED70F2EFCD700F0120021
:020000040020DA
:08000000FFFFFFFFFFFFFFFF00
:020000040030CA
:0E000000040C1F1EFF8385FF0FC00FE00F4092
:00000001FF
