:04000000B9EF3FF025
:107F72000001C0EF3FF0C5EC3FF0E8EF3FF0BCEC92
:107F82003FF0CBEC3FF0FDD7300ED36E040ED26E35
:107F92009B6A12008CB002D08C8001D08C90010EB2
:107FA200026E2C0E016ED6EF3FF0046A056A09D00C
:107FB200030E036E980EE82EFED7032EFCD7044A5A
:107FC200052A0150045C02500558F2E31200896A46
:107FD20092682F0E0F01386F8A6A93683F0E396FCD
:107FE200616A8B6A9468FC0E3A6F8C6AFE0E956E1B
:0E7FF2003B6F8D6A070E966E3C6FF18E070C8A
:020000040020DA
:08000000FFFFFFFFFFFFFFFF00
:020000040030CA
:0E000000FF031F3CFFBD81FF0FC00FE00F404C
:00000001FF
