:04000000A6EF3FF038
:107F4C000001AEEF3FF0E2EC3FF0B3EC3FF012007B
:107F5C00A9EC3FF0BAEC3FF0FDD7300ED36E040E17
:107F6C00D26E000E9B6E120089A002D0010E01D0C1
:107F7C00000EFF0A066E89500618FE0B0618896E55
:107F8C00010E026E2C0E016ECDEC3FF01200000EB5
:107F9C00056E000E046E09D0030E036E980EE82ECB
:107FAC00FED7032EFCD7044A052A0150045C02506C
:107FBC000558D8B01200F0D7000E8D6E000E8C6EE6
:107FCC00000E896E000E8A6E000E8B6E070E966E7A
:107FDC00FD0E926E936894689568FC0E0F013A6FD3
:107FEC003F0E396F3B69070E3C6F2E0E386F616880
:047FFC00F19E1200E0
:020000040020DA
:08000000FFFFFFFFFFFFFFFF00
:020000040030CA
:0E000000FF221E3CFFBD81FF0FC00FE00F402E
:00000001FF
