:04000000EDEF3EF0F2
:107DD200F2EC3EF010EF3FF00001A46B000178EFEF
:107DE2003FF0300ED36E040ED26E9B6A120003C0B7
:107DF200F8FF02C0F7FF01C0F6FF0800F5501200BD
:107E0200026E036A08D0030E016E980EE82EFED7AA
:107E1200012EFCD7032A0250035CF5E31200896AA3
:107E220092682F0E0F01386F8A6A93683E0E396F7F
:107E3200010E616E8B6A9468FC0E3A6F8C6AFE0EBC
:107E4200956E3B6F8D6A070E966E3C6FF19E070C26
:107E5200000EF2BE010E056E03C0F8FF02C0F7FF6E
:107E620001C0F6FFA68EA69CA684A688F29E550E99
:107E7200A76EAA0EA76EA68205B002D0F29E01D00E
:107E8200F28E1200C00E1114186E7F0E1214196EAB
:107E92001A6A1B6A11503F0B176E1C6A15501C247C
:107EA200D96EDA6A1C501824016E000E1920026E77
:107EB200000E1A20036E000E1B20046EF8EC3EF03A
:107EC200DF6E1C2A3F0E1C64E9D715501724D96EA9
:107ED200DA6A16C0DFFF18C006F019C007F01AC030
:107EE20008F01BC009F015C00AF0B6EF3FF0E9EC4C
:107EF2003EF00001A06B7D0EA16FA26BA36B016A25
:107F0200026E036A046AF8EC3EF01D6E1D3002E355
:107F12008C8001D08C9081B01ED00001A4511BE155
:107F22008CB002D08C8001D08C90A0C011F0A1C086
:107F320012F0A2C013F0A3C014F0600E156E000E72
:107F420083B0010E166E43EC3FF0010E0001A46FE8
:107F5200640E01EC3FF081A0DED70001A405DBE155
:107F6200A46B640E01EC3FF0D6D7C00E06140B6E64
:107F72007F0E07140C6E0D6A0E6A000EF2BE010E21
:107F82000F6E0B5006183AE10C50071837E10D50EE
:107F9200081834E10E50091801E0120006C001F081
:107FA20007C002F008C003F009C004F029EC3FF05A
:107FB20008C0F8FF07C0F7FF06C0F6FF106A0A50B4
:107FC2001024D96EDA6ADF50F56E3F0E101802E106
:107FD2000C0001D00D00102A3F0E1064F0D7A68EBF
:107FE200A69CA684F29E550EA76EAA0EA76EA68226
:0E7FF200A6940FB002D0F29E01D0F28E1200C3
:020000040020DA
:08000000FFFFFFFFFFFFFFFF00
:020000040030CA
:0E000000FF031F3CFFBD81FF0FC00FE00F404C
:00000001FF
