:04000000C1EF3FF01D
:107F82000001CEEF3FF0C8EC3FF0E8EF3FF0300EDB
:107F9200D36E040ED26E9B6A1200C4EC3FF08CB01A
:107FA20002D08C8001D08C902C0ED9EC3FF0F7D708
:107FB200026E036A08D0030E016E980EE82EFED7F9
:107FC200012EFCD7032A0250035CF5E31200896AF2
:107FD20092682F0E0F01386F8A6A93683F0E396FCD
:107FE200616A8B6A9468FC0E3A6F8C6AFE0E956E1B
:0E7FF2003B6F8D6A070E966E3C6FF18E070C8A
:020000040020DA
:08000000FFFFFFFFFFFFFFFF00
:020000040030CA
:0E000000FF031F3CFFBD81FF0FC00FE00F404C
:00000001FF
