:04000000F4EF3EF0EB
:107DE800076A000192EF3FF093988188939A818AFD
:107DF8001200016E00F0012EFDD71200010E09ECF1
:107E08003FF0120EFDEC3EF01200016E210EE82E3E
:107E1800FED700F0012EFAD71200036E8C9403509F
:107E28002FEC3FF08C860D0E026EFC0EE82EFED76E
:107E3800022EFCD78C961200F20E0716ABAC03D0BC
:107E48000790ABB00780ABB40784ABB20786AECF60
:107E580001F001501200016E01A002D08C8801D0FF
:107E68008C9801A202D08C8A01D08C9A01A402D0ED
:107E78008C8C01D08C9C01A602D08C8E12008C9E1A
:107E88001200036E080E046E819802EC3FF00ED0CB
:107E980003C002F0010E0216023A81500218EF0BDD
:107EA8000218816E02EC3FF0D890033204060428D1
:107EB800D8A4EED7818802EC3FF01200036E000EC2
:107EC800AC6E000EAB6E03B0AC8803A202D0AC8CD3
:107ED800AB8C03B4AC8E03A602D0AB8801D0AB8ABE
:107EE80003B8AC849E9803BAAB8603AC02D09D8AD3
:107EF80001D09D9A9E9A03AE02D09D8801D09D988C
:107F080001C0AFFF0250B06EAC8AAB8E949C948EC9
:107F1800ACA81200ACBE1200948C1200000E956E34
:107F2800000E026E130E016E3C0E62EC3FF0B89626
:107F3800B890B892210E056E760EE82EFED7052E63
:107F4800FCD700D0F8EC3EF0210E056E760EE82E38
:107F5800FED7052EFCD700D0C7EC3FF0210E056EEA
:107F6800760EE82EFED7052EFCD700D09EAAFED7A7
:107F780020EC3FF0066EACA2FED7065045EC3FF071
:107F8800ACB2F4D7FDD7000E2FEC3FF0410E046ED3
:107F9800EE0EE82EFED7042EFCD700D0030E11EC0F
:107FA8003FF0110E046E3A0EE82EFED7042EFCD7D1
:107FB80000D0030E11EC3FF0240E046EB60EE82E2E
:107FC800FED7042EFCD7030E11EC3FF0020E11EC85
:107FD8003FF0020E11EC3FF0080E11EC3FF0000EDE
:107FE80011EC3FF00C0E11EC3FF0000E11EC3FF0DD
:087FF800060E11EC3FF012002F
:020000040020DA
:08000000FFFFFFFFFFFFFFFF00
:020000040030CA
:0E000000240C1E1EFF8185FF0FC00FE00F4075
:00000001FF
